:100000000C942A000C9447000C9447000C94470071
:100010000C9447000C9447000C9447000C94470044
:100020000C9447000C9447000C9447000C94470034
:100030000C9447000C9447000C9447000C94470024
:100040000C9447000C9447000C9447000C94470014
:100050000C94470011241FBECFE5D8E0DEBFCDBF12
:1000600011E0A0E6B0E0EEE3F3E602C005900D92E9
:10007000A83AB107D9F711E0A8EAB1E001C01D9292
:10008000A83BB107E1F70E94A52E0C949D310C947A
:100090000000EF92FF920F931F937B018C0120E0F1
:1000A00030E040E05FE40E94A11688238CF0C80194
:1000B000B70120E030E040E05FE40E943D140E9480
:1000C0005F179B01AC01205030404040504806C0B3
:1000D000C801B7010E945F179B01AC01B901CA01B9
:1000E0001F910F91FF90EF900895EF92FF920F9361
:1000F0001F937B018C0120E030E040E050E00E9443
:10010000D11688230CF05CC0C801B70190580E943A
:10011000E9002195E1E0121608F0E0E03195F1E008
:10012000131608F0F0E0E32EEE1AE1E03E1508F0B9
:10013000E0E0FE2B4195A1E0141608F0A0E0F42EBB
:10014000FF1AE1E04F1508F0E0E0AE2B5195F1E029
:10015000151608F0F0E0052F0A1BE1E0501708F033
:10016000E0E0FE2B6195A1E0161608F0A0E0162F46
:100170001F1BE1E0611708F0E0E0AE2B7195F1E0A4
:10018000171608F0F0E0B72FBA1BE1E07B1708F074
:10019000E0E0FE2B8195A1E0181608F0A0E0382FD2
:1001A0003F1BF32FE1E0831708F0E0E0AE2B9195C1
:1001B0003E2D4F2D502F612F7B2F8F2F9A1B04C068
:1001C000C801B7010E94E9001F910F91FF90EF90C5
:1001D0000895A0E0B0E0EFEEF0E00C9466317B0112
:1001E0008C0120E030E040E85FE30E94D1168823D4
:1001F0004CF4AA24BB24CC24DD24EE24FF2400E00C
:1002000010E086C0C801B70120E030E040E85FE4BC
:100210000E94D116882354F4C801B7010E944900F6
:100220005B016C01EE24FF24870172C0C801B70195
:1002300020E030E040E85FE50E94D11687FD0FC066
:10024000AA24AA94BB24BA94CC24CA94DD24DA94B8
:10025000EE24EA94FF24FA940FEF1FEF59C0C8016F
:10026000B70120E030E040E85FE20E949B147B0190
:100270008C0122243324210190E1A92EB12CC12C20
:10028000D12CC0E0D0E061E070E080E090E00A2C8A
:1002900004C0660F771F881F991F0A94D2F70E9427
:1002A000B3173B014C01C801B701A40193010E949F
:1002B000A116882364F02A283B284C285D28C80111
:1002C000B701A40193010E9495157B018C01D6947E
:1002D000C794B794A7942196C530D105A1F6C8015B
:1002E000B70120E030E040E85FE40E949B140E94E8
:1002F00049005B016C019B01A60160E070E080E0B9
:1003000090E0022D0E942C1859016A017B018C019A
:100310009501A601B701C801CDB7DEB7E2E10C94A3
:100320008231A4E0B0E0E7E9F1E00C9468314901E2
:100330005A016B017C01D501C4019C01AD01550F2F
:10034000220B322FA901881599F4991589F4AA1561
:1003500079F4BB1569F42C1559F42D1549F42E15B3
:1003600039F42F1529F4C501B4010E940117D0C03A
:100370009401A501B601C70100E20E94AB18C901B2
:10038000A42FB52FB7FF07C0B095A0959095819584
:100390009F4FAF4FBF4F803020E0920721E0A20770
:1003A00020E0B20780F48F3F9105A105B10531F03F
:1003B00028F028E030E040E050E016C020E030E0D7
:1003C00040E050E011C0803030E0930730E0A307F8
:1003D00031E0B30728F028E130E040E050E004C00D
:1003E00020E130E040E050E060E2462E512C612CEC
:1003F000712C421A530A640A750A04C0B695A7956F
:10040000979587952A95D2F7FC01EA56FF4F808190
:10041000481A5108610871084114510461047104BB
:1004200029F460E070E080E09FED72C081E290E02E
:10043000A0E0B0E084199509A609B70989839A83D9
:10044000AB83BC8319819401A501B601C701012FBB
:100450000E94AB18C901DA012C013D0180E290E055
:10046000A981BA818A1B9B0BA501940104C0220FAC
:10047000331F441F551F8A95D2F7211531054105B9
:10048000510541F081E090E0A0E0B0E0482A592A0F
:100490006A2A7B2A29813A814B815C81203231058D
:1004A0004105510559F40F2EF0E0CF2EF0E0DF2E7C
:1004B000F0E8EF2EFFE4FF2EF02D22C089819A8113
:1004C000AB81BC814F97A105B10559F40F2EF0E027
:1004D000CF2EF0E0DF2EF0E0EF2EFFE4FF2EF02D28
:1004E0000FC061E070E080E090E004C0660F771F0D
:1004F000881F991F1A95D2F70E9401176B017C0182
:10050000C301B2010E940117A70196010E949B142A
:100510002496E0E10C948431A2E7B0E0E2E9F2E055
:100520000C946631982E892E712E88E0FE0131964A
:10053000DF01682E1D926A94E9F729833A834B8381
:100540005C836D837E839F829887FE013996DF01ED
:100550001D928A95E9F7A986BA86CB86DC86ED8658
:10056000FE860F87188B8D819E81AF81B885B7FD80
:1005700007C0E1961CAE1DAE1EAE1FAEE19764C073
:10058000219581E0121608F080E0319591E0131674
:1005900008F090E0B32FB81B81E03B1708F080E033
:1005A000982B419531E0141608F030E0A42FA91BD8
:1005B00081E04A1708F080E0382B519591E015163C
:1005C00008F090E0F52FF31B81E05F1708F080E062
:1005D000982B619531E0161608F030E0E62FE91B04
:1005E00081E06E1708F080E0382B719541E0171616
:1005F00008F040E0572F531B81E0751708F080E0AA
:10060000482B892D819591E0181608F090E0682E0E
:10061000641A462D31E0861508F030E0932B882DC2
:100620008195891B2983BA83AB83FC83ED835E8329
:100630004F8388872FEF3FEF4FEF5FEFE1962CAFAF
:100640003DAF4EAF5FAFE1978D859E85AF85B88991
:10065000B7FF6AC0E1964CAD5DAD6EAD7FADE19781
:100660004095509560957095E1964CAF5DAF6EAF3B
:100670007FAFE197A19481E01A1408F080E0B19473
:1006800091E01B1408F090E06B2D681B81E0B6161A
:1006900008F080E0982BC19421E01C1408F020E0C1
:1006A0005C2D591B81E0C51608F080E0282BD19401
:1006B00091E01D1408F090E04D2D421B81E0D4160E
:1006C00008F080E0982BE19421E01E1408F020E06F
:1006D0003E2D391B81E0E31608F080E0282BF194D1
:1006E00091E01F1408F090E07F2D721B272F81E00E
:1006F000F71608F080E0982B019511E0101608F02D
:1007000010E0802F891B982F81E0091708F080E006
:10071000182B872D8195811BA9866A875B874C875B
:100720003D872E879F87888B99812A813B814C81C9
:100730005D816E817F81A885B9851A850B85FC84D2
:10074000ED84DE84CF84B88888E0E1E18E2E912CA0
:100750008C0E9D1EF401682E11926A94E9F7998B14
:100760002A8B3B8B4C8B5D8B6E8B7F8BA88F9E0176
:10077000275E3F4FF90111928A95E9F7B98F1A8FD9
:100780000B8FFC8EED8EDE8ECF8EB8A2298C3A8C2C
:100790004B8C5C8CED8CFE8C0F8D18A169887A884F
:1007A0008B889C8821966CAE7DAE8EAE9FAE2197D5
:1007B0006D887E888F88988CE114F10401051105FD
:1007C00009F0D9C3621473048404950408F057C176
:1007D00000E0201600E0300601E0400600E0500690
:1007E00088F41FEF211631044104510439F030F030
:1007F00048E0E42EF12C012D112D18C0EE24FF2429
:10080000870114C020E0221620E0320620E04206D4
:1008100021E0520630F038E1E32EF12C012D112DAC
:1008200005C020E1E22EF12C012D112DD201C101D4
:100830000E2C04C0B695A795979587950A94D2F784
:100840008A569F4FDC012C9180E290E0A0E0B0E05E
:100850008E199F09A00BB10B7C018D01E21AF108E2
:1008600001091109E114F10401051105D1F10E2C62
:1008700004C0220C331C441C551C0A94D2F7A4015A
:1008800093010E2C04C0220F331F441F551F0A94DE
:10089000D2F780E290E08E199F0921966CAC7DAC76
:1008A0008EAC9FAC219704C09694879477946794FC
:1008B0008A95D2F7622A732A842A952A2196ACACAB
:1008C000BDACCEACDFAC219704C0AA0CBB1CCC1CC9
:1008D000DD1CEA94D2F72196ACAEBDAECEAEDFAE53
:1008E00021976201EE24FF242996CCAEDDAEEEAE58
:1008F000FFAE299792018101207030702D960CAFC8
:100900001DAF2EAF3FAF2D97C401B301A7019601D4
:100910000E9444317B018C01C401B30129962CADA6
:100920003DAD4EAD5FAD29970E944431C901DA015A
:100930003C014D01C401B3012D962CAD3DAD4EAD32
:100940005FAD2D970E9425319B01AC018701FF24EB
:10095000EE242196ACACBDACCEACDFAC2197C60189
:10096000AA27BB2757016801A82AB92ACA2ADB2A65
:10097000A216B306C406D506E0F40894610871080F
:1009800081089108A20CB31CC41CD51CA214B3048A
:10099000C404D50470F0A216B306C406D50648F404
:1009A00008946108710881089108A20CB31CC41C4A
:1009B000D51CA21AB30AC40AD50AC601B5012996E4
:1009C0002CAD3DAD4EAD5FAD29970E9444317B010A
:1009D0008C01C601B50129962CAD3DAD4EAD5FAD84
:1009E00029970E944431C901DA015C016D01C601F9
:1009F000B5012D962CAD3DAD4EAD5FAD2D970E944E
:100A000025319B01AC018701FF24EE2421968CAD9A
:100A10009DADAEADBFAD2197A070B070E82AF92AA8
:100A20000A2B1B2BE216F30604071507C0F40894E3
:100A3000A108B108C108D108E20CF31C041D151D62
:100A4000E214F3040405150550F0E216F30604075A
:100A5000150728F40894A108B108C108D108D301EA
:100A60009927882786017501E82AF92A0A2B1B2B6A
:100A70002596ECAEFDAE0EAF1FAF2597EBC421144B
:100A800031044104510471F461E070E080E090E0D1
:100A900020E030E040E050E00E944431C901DA013A
:100AA0001C012D0100E0201600E0300601E04006A8
:100AB00000E0500688F41FEF211631044104510470
:100AC00031F028F048E050E060E070E017C040E00E
:100AD00050E060E070E012C020E0221620E0320614
:100AE00020E0420621E0520628F048E150E060E0B4
:100AF00070E004C040E150E060E070E0D201C1016C
:100B0000042E04C0B695A795979587950A94D2F7B9
:100B10008A569F4FDC012C91E0E2EE2EF12C012D44
:100B2000112DD801C701841B950BA60BB70B821B97
:100B30009109A109B1090097A105B10561F464010A
:100B40005301A218B308C408D50831E0632E712CF4
:100B5000812C912C24C1E3968FAFE397082E04C01B
:100B6000220C331C441C551C0A94D2F7EE2DE81BB2
:100B7000640153010E2E04C0D694C794B794A79471
:100B80000A94D2F7A4019301E3960FACE39704C053
:100B9000220F331F441F551F0A94D2F721966CACC5
:100BA0007DAC8EAC9FAC21970E2E04C0969487949A
:100BB000779467940A94D2F784017301E22AF32AA6
:100BC000042B152BE9AEFAAE0BAF1CAF3201882413
:100BD0009924920181012070307061960CAF1DAF95
:100BE0002EAF3FAF6197C601B501A40193010E94EA
:100BF00044317B018C01C601B501A40193010E941F
:100C00004431C901DA0165968CAF9DAFAEAFBFAF7D
:100C10006597BC01CD0161962CAD3DAD4EAD5FAD8C
:100C200061970E9425319B01AC018701FF24EE24CE
:100C3000A9ACBAACCBACDCACC601AA27BB275C0123
:100C40006D01AE28BF28C02AD12AA216B306C40659
:100C5000D50660F565966CAD7DAD8EAD9FAD6597A3
:100C6000615070408040904065966CAF7DAF8EAF14
:100C70009FAF6597A20CB31CC41CD51CA214B3046F
:100C8000C404D50498F0A216B306C406D50670F4C1
:100C9000615070408040904065966CAF7DAF8EAFE4
:100CA0009FAF6597A20CB31CC41CD51CA21AB30A33
:100CB000C40AD50AC601B501A40193010E944431BA
:100CC0007B018C01C601B501A40193010E9444314E
:100CD000C901DA013C014D01C401B30161962CAD9B
:100CE0003DAD4EAD5FAD61970E9425319B01AC01DA
:100CF0008701FF24EE2489AD9AADABADBCADA070E9
:100D0000B07057016801A82AB92ACA2ADB2AA2169C
:100D1000B306C406D506E0F408946108710881089A
:100D20009108A20CB31CC41CD51CA214B304C404A7
:100D3000D50470F0A216B306C406D50648F408948C
:100D40006108710881089108A20CB31CC41CD51C51
:100D500021968CAD9DADAEADBFAD2197E3960FACA6
:100D6000E39704C0880F991FAA1FBB1F0A94D2F7EC
:100D700021968CAF9DAFAEAFBFAF2197A21AB30A39
:100D8000C40AD50A6596ECACFDAC0EAD1FAD6597F7
:100D9000D70199278827682A792A8A2A9B2A8201DB
:100DA0002227332769960CAF1DAF2EAF3FAF69974F
:100DB000A2019101407050706D962CAF3DAF4EAFC7
:100DC0005FAF6D97C601B50169962CAD3DAD4EADD7
:100DD0005FAD69970E9444317B018C01C601B5016A
:100DE00069962CAD3DAD4EAD5FAD69970E94443123
:100DF000C901DA01A1968CAF9DAFAEAFBFAFA1978D
:100E0000BC01CD016D962CAD3DAD4EAD5FAD6D9786
:100E10000E9425319B01AC018701FF24EE2421961D
:100E2000ACACBDACCEACDFAC2197C601AA27BB27CA
:100E300057016801A82AB92ACA2ADB2AA216B306D2
:100E4000C406D50660F5A1966CAD7DAD8EAD9FADA7
:100E5000A1976150704080409040A1966CAF7DAFEB
:100E60008EAF9FAFA197A20CB31CC41CD51CA214BB
:100E7000B304C404D50498F0A216B306C406D5067C
:100E800070F46150704080409040A1966CAF7DAF8F
:100E90008EAF9FAFA197A20CB31CC41CD51CA21A85
:100EA000B30AC40AD50AC601B50169962CAD3DAD99
:100EB0004EAD5FAD69970E9444317B018C01C60144
:100EC000B50169962CAD3DAD4EAD5FAD69970E9401
:100ED0004431C901DA015C016D01C601B5016D96AD
:100EE0002CAD3DAD4EAD5FAD6D970E9425319B01A0
:100EF000AC018701FF24EE2421968CAD9DADAEADF3
:100F0000BFAD2197A070B070E82AF92A0A2B1B2BDD
:100F1000E216F30604071507C0F40894A108B10807
:100F2000C108D108E20CF31C041D151DE214F304E2
:100F30000405150550F0E216F3060407150728F41A
:100F40000894A108B108C108D108A196ECACFDAC89
:100F50000EAD1FADA197D70199278827960185016E
:100F6000082B192B2A2B3B2B25960CAF1DAF2EAF30
:100F70003FAF259772C26E147F048006910608F475
:100F80005FC220E0E21620E0F20621E0020720E046
:100F9000120788F43FEFE316F1040105110531F063
:100FA00028F048E050E060E070E017C040E050E01A
:100FB00060E070E012C040E0E41640E0F40640E07B
:100FC000040741E0140728F048E150E060E070E0D9
:100FD00004C040E150E060E070E0D801C701042E99
:100FE00004C0B695A795979587950A94D2F78A5627
:100FF0009F4FDC012C9130E2A32EB12CC12CD12CBF
:10100000D601C501841B950BA60BB70B821B91095A
:10101000A109B1090097A105B10599F4E614F704F7
:101020000805190508F4FEC121966CAC7DAC8EACA8
:101030009FAC2197621473048404950408F0F2C1F4
:10104000FFC1E2968FAFE297082E04C0EE0CFF1CA2
:10105000001F111F0A94D2F76A2D681BD201C1012B
:10106000062E04C0B695A795979587950A94D2F752
:101070005C016D01AE28BF28C02AD12AADAABEAA44
:10108000CFAAD8AE72016101E2960FACE29704C01C
:10109000CC0CDD1CEE1CFF1C0A94D2F7C9AADAAAFC
:1010A000EBAAFCAA64015301062E04C0D694C7948F
:1010B000B794A7940A94D2F7D401C301E2960FAC77
:1010C000E29704C0880F991FAA1FBB1F0A94D2F78A
:1010D0002196ECACFDAC0EAD1FAD219704C016956A
:1010E0000795F794E7946A95D2F737014801682A83
:1010F000792A8A2A9B2A6DA67EA68FA698AAEDA891
:10110000FEA80FA918AD38018824992498018701F9
:1011100020703070A5960CAF1DAF2EAF3FAFA597D6
:10112000C601B501A40193010E9444317B018C01E9
:10113000C601B501A40193010E944431C901DA013D
:101140001C012D01C201B101A5962CAD3DAD4EADE6
:101150005FADA5970E9425319B01AC018701FF245B
:10116000EE24ADA4BEA4CFA4D8A8C601AA27BB274D
:1011700057016801A82AB92ACA2ADB2AA216B3068F
:10118000C406D50600F50894210831084108510825
:10119000EDA8FEA80FA918ADAE0CBF1CC01ED11E35
:1011A000AE14BF04C006D10670F0A216B306C40682
:1011B000D50648F408942108310841085108AE0CBE
:1011C000BF1CC01ED11EA21AB30AC40AD50AC6018A
:1011D000B501A40193010E9444317B018C01C60139
:1011E000B501A40193010E944431C901DA013C0117
:1011F0004D01C401B301A5962CAD3DAD4EAD5FAD23
:10120000A5970E9425319B01AC018701FF24EE24A4
:101210008DA59EA5AFA5B8A9A070B07057016801B3
:10122000A82AB92ACA2ADB2AA216B306C406D506FA
:1012300000F5089461087108810891086DA97EA9DC
:101240008FA998ADA60EB71EC81ED91EA616B70642
:10125000C806D90670F0A216B306C406D50648F42F
:1012600008946108710881089108A60EB71EC81E6F
:10127000D91ED601C501821B930BA40BB50B89A700
:101280009AA7ABA7BCA7D10199278827640153016E
:10129000A82AB92ACA2ADB2A2596ACAEBDAECEAEA4
:1012A000DFAE2597860175012FEF3FEF40E050E05C
:1012B000E222F32204231523A60166277727AD96A1
:1012C0004CAF5DAF6EAF7FAFAD97A9A8BAA8CBA862
:1012D000DCA86FEF7FEF80E090E0A622B722C82263
:1012E000D92289A99AA9ABA9BCA91D0144245524D6
:1012F000C801B701A60195010E942531A9966CAFDE
:101300007DAF8EAF9FAFA997C801B701A201910130
:101310000E9425313B014C01AD966CAD7DAD8EAD8B
:101320009FADAD97A60195010E9425317B018C01EF
:10133000AD966CAD7DAD8EAD9FADAD97A201910127
:101340000E9425315B016C01A8019701260D371D14
:10135000481D591DA9966CAC7DAC8EAC9FACA9976D
:10136000C401AA27BB27280F391F4A1F5B1F2E1550
:101370003F054007510748F4E12CF12C61E0062FAE
:10138000112DAE0CBF1CC01ED11ECA01AA27BB273F
:10139000BC01CD016A0D7B1D8C1D9D1D69A47AA425
:1013A0008BA49CA4661677068806990650F16615EC
:1013B00077058805990509F04DC0D9019927882737
:1013C000A9962CAD3DAD4EAD5FADA9974070507064
:1013D000820F931FA41FB51F21962CAD3DAD4EADBE
:1013E0005FAD2197E2960FACE29704C0220F331F46
:1013F000441F551F0A94D2F7281739074A075B077D
:1014000048F525960CAD1DAD2EAD3FAD259701508D
:1014100010402040304025960CAF1DAF2EAF3FAF9F
:10142000259718C066247724430121E030E040E08E
:1014300050E025962CAF3DAF4EAF5FAF25970DC066
:1014400066247724430125961CAE1DAE1EAE1FAE4A
:10145000259703C0662477244301FE01B19688E0F6
:10146000DF011D928A95E9F72596ACACBDACCEACF8
:10147000DFAC2597A9A2BAA2CBA2DCA26DA27EA264
:101480008FA298A622962FAD22973AA14BA15CA1DC
:10149000662D7EA1DFA098A5E196ECACFDAC0EAD6B
:1014A0001FADE197E114F1040105110509F456C0DF
:1014B000219581E0121608F080E03195E1E01316E5
:1014C00008F0E0E0932E981A81E0391508F080E0EA
:1014D000E82B4195F1E0141608F0F0E0A42EAE1AC6
:1014E00081E04A1508F080E0F82B5195E1E01516EF
:1014F00008F0E0E0B52EBF1A81E05B1508F080E04F
:10150000E82B6195F1E0161608F0F0E0A62FAE1B6F
:1015100081E06A1708F080E0F82B7195E1E017167A
:1015200008F0E0E0C72ECF1A81E07C1508F080E0DB
:10153000E82B8D2D8195F1E0181608F0F0E0D82EFB
:10154000DE1AE1E08D1508F0E0E0FE2B892F819591
:10155000392DA5016A2F7C2D982F9F1B8D2DCE58DC
:10156000DF4FE2E10C948231A7E7B0E0EAEBFAE06A
:101570000C946631982E892E712E88E0FE013196EA
:10158000DF01682E1D926A94E9F729833A834B8321
:101590005C836D837E839F829887FE013996DF018D
:1015A0001D928A95E9F7A986BA86CB86DC86ED86F8
:1015B000FE860F87188B8D819E81AF81B885B7FD20
:1015C00007C0E1961CAE1DAE1EAE1FAEE19764C013
:1015D000219581E0121608F080E0319591E0131614
:1015E00008F090E0B32FB81B81E03B1708F080E0D3
:1015F000982B419531E0141608F030E0A42FA91B78
:1016000081E04A1708F080E0382B519591E01516DB
:1016100008F090E0F52FF31B81E05F1708F080E001
:10162000982B619531E0161608F030E0E62FE91BA3
:1016300081E06E1708F080E0382B719541E01716B5
:1016400008F040E0572F531B81E0751708F080E049
:10165000482B892D819591E0181608F090E0682EAE
:10166000641A462D31E0861508F030E0932B882D62
:101670008195891B2983BA83AB83FC83ED835E83C9
:101680004F8388872FEF3FEF4FEF5FEFE1962CAF4F
:101690003DAF4EAF5FAFE1978D859E85AF85B88931
:1016A000B7FF5AC0A19481E01A1408F080E0B19409
:1016B00091E01B1408F090E06B2D681B81E0B616DA
:1016C00008F080E0982BC19421E01C1408F020E081
:1016D0005C2D591B81E0C51608F080E0282BD194C1
:1016E00091E01D1408F090E04D2D421B81E0D416CE
:1016F00008F080E0982BE19421E01E1408F020E02F
:101700003E2D391B81E0E31608F080E0282BF19490
:1017100091E01F1408F090E07F2D721B272F81E0CD
:10172000F71608F080E0982B019511E0101608F0EC
:1017300010E0802F891B982F81E0091708F080E0C6
:10174000182B872D8195811BA9866A875B874C871B
:101750003D872E879F87888B99812A813B814C8189
:101760005D816E817F81A885B9851A850B85FC8492
:10177000ED84DE84CF84B88888E0E9E18E2E912C58
:101780008C0E9D1EF401682E11926A94E9F7998FD0
:101790002A8F3B8F4C8F5D8F6E8F7F8FA8A39E010A
:1017A0002F5D3F4FF90111928A95E9F7B9A31AA36A
:1017B0000BA3FCA2EDA2DEA2CFA2B8A629A03AA05C
:1017C0004BA05CA0ADA0BEA0CFA0D8A4498D5A8DDF
:1017D0006B8D7C8DE5964FAFE597E6965FAFE6970C
:1017E000E7966FAFE797E8967FAFE897E8966CAC1F
:1017F0007DAC8EAC9FACE8972D966CAE7DAE8EAE78
:101800009FAE2D978D8D9E8D2F8D38A13C01490166
:1018100061966CAE7DAE8EAE9FAE6197A114B104A1
:10182000C104D10409F028C362147304840495042C
:1018300008F00EC100E0201600E0300601E040068E
:1018400000E0500688F41FEF2116310441045104D2
:1018500039F030F088E0E82EF12C012D112D18C060
:10186000EE24FF24870114C020E0221620E0320677
:1018700020E0420621E0520630F0B8E1EB2EF12CD8
:10188000012D112D05C0A0E1EA2EF12C012D112D05
:10189000D201C1010E2C04C0B695A79597958795E6
:1018A0000A94D2F78A569F4FDC012C9180E290E097
:1018B000A0E0B0E08E199F09A00BB10B5C016D0197
:1018C000A21AB108C108D1086596ACAEBDAECEAEC5
:1018D000DFAE6597A114B104C104D10409F445C079
:1018E00062966FAD6297062E04C0220C331C441C16
:1018F000551C0A94D2F7A4019301062E04C0220FAE
:10190000331F441F551F0A94D2F780E290E08A19D2
:101910009B09E896CCACDDACEEACFFACE89704C01C
:10192000F694E794D794C7948A95D2F78701760105
:10193000E22AF32A042B152B6196ECAEFDAE0EAF16
:101940001FAF6197E8960CAD1DAD2EAD3FADE8978A
:1019500004C0000F111F221F331F6A95D2F72D9666
:101960000CAF1DAF2EAF3FAF2D97320188249924C5
:10197000A20191014070507069962CAF3DAF4EAFFF
:101980005FAF699761966CAD7DAD8EAD9FAD619790
:10199000A40193010E9444317B018C0161966CADDE
:1019A0007DAD8EAD9FAD6197A40193010E9444313E
:1019B000CA01B90169962CAD3DAD4EAD5FAD6997D9
:1019C0000E9425319B01AC018701FF24EE242D9656
:1019D000ACACBDACCEACDFAC2D97C601AA27BB2703
:1019E00057016801A82AB92ACA2ADB2AA216B30617
:1019F000C406D50690F4A20CB31CC41CD51CA214BA
:101A0000B304C404D50448F0A216B306C406D50630
:101A100020F4A20CB31CC41CD51CA21AB30AC40A1D
:101A2000D50AC601B501A40193010E9444317B018E
:101A30008C01C601B501A40193010E944431CA0181
:101A4000B90169962CAD3DAD4EAD5FAD6997C8C18A
:101A5000211431044104510471F461E070E080E02C
:101A600090E020E030E040E050E00E944431C901C5
:101A7000DA011C012D0100E0201600E0300601E033
:101A8000400600E0500688F41FEF2116310441049F
:101A9000510439F030F068E0E62EF12C012D112DC3
:101AA00018C0EE24FF24870114C020E0221620E095
:101AB000320620E0420621E0520630F058E1E52EE1
:101AC000F12C012D112D05C040E1E42EF12C012D4A
:101AD000112DD201C1010E2C04C0B695A795979582
:101AE00087950A94D2F78A569F4FDC012C9130E2F9
:101AF000A32EB12CC12CD12CD601C5018E199F0962
:101B0000A00BB10B7C018D01E21AF108010911094A
:101B10006596ECAEFDAE0EAF1FAF6597E114F10414
:101B20000105110539F464015301A218B308C40872
:101B3000D508ECC06296FFAC6297E496FFAEE497DE
:101B40000F2C04C0220C331C441C551C0A94D2F7E1
:101B50008A2D8F1964015301082E04C0D694C794AE
:101B6000B794A7940A94D2F7A401930104C0220F5A
:101B7000331F441F551FFA94D2F7E8966CAC7DAC26
:101B80008EAC9FACE89704C0969487947794679442
:101B90008A95D2F784017301E22AF32A042B152BCC
:101BA0002996ECAEFDAE0EAF1FAF29973201882407
:101BB000992492018101207030706D960CAF1DAF99
:101BC0002EAF3FAF6D97C601B501A40193010E94EE
:101BD00044317B018C01C601B501A40193010E942F
:101BE0004431CA01B9016D962CAD3DAD4EAD5FAD2E
:101BF0006D970E9425319B01AC018701FF24EE24E3
:101C00002996ACACBDACCEACDFAC2997C601AA27F7
:101C1000BB275C016D01AE28BF28C02AD12AA216BD
:101C2000B306C406D50690F4A20CB31CC41CD51C84
:101C3000A214B304C404D50448F0A216B306C40623
:101C4000D50620F4A20CB31CC41CD51CA21AB30ADE
:101C5000C40AD50AC601B501A40193010E9444310A
:101C60007B018C01C601B501A40193010E9444319E
:101C7000CA01B9016D962CAD3DAD4EAD5FAD6D970E
:101C80000E9425319B01AC018701FF24EE24299697
:101C90008CAD9DADAEADBFAD2997A070B0705701B2
:101CA0006801A82AB92ACA2ADB2AA216B306C406E2
:101CB000D50690F4A20CB31CC41CD51CA214B3040A
:101CC000C404D50448F0A216B306C406D50620F411
:101CD000A20CB31CC41CD51CE896ECACFDAC0EAD3C
:101CE0001FADE897E4960FACE49704C0EE0CFF1C20
:101CF000001F111F0A94D2F72D96ECAEFDAE0EAF69
:101D00001FAF2D97A21AB30AC40AD50A320188243C
:101D100099249201810120703070A1960CAF1DAF03
:101D20002EAF3FAFA197C601B501A40193010E9458
:101D300044317B018C01C601B501A40193010E94CD
:101D40004431CA01B901A1962CAD3DAD4EAD5FAD98
:101D5000A1970E9425319B01AC018701FF24EE244D
:101D60002D96ACACBDACCEACDFAC2D97C601AA278E
:101D7000BB2757016801A82AB92ACA2ADB2AA2165A
:101D8000B306C406D50690F4A20CB31CC41CD51C23
:101D9000A214B304C404D50448F0A216B306C406C2
:101DA000D50620F4A20CB31CC41CD51CA21AB30A7D
:101DB000C40AD50AC601B501A40193010E944431A9
:101DC0007B018C01C601B501A40193010E9444313D
:101DD000CA01B901A1962CAD3DAD4EAD5FADA19745
:101DE0000E9425319B01AC018701FF24EE242D9632
:101DF0008CAD9DADAEADBFAD2D97A070B070E82A93
:101E0000F92A0A2B1B2BE216F3060407150790F498
:101E1000E20CF31C041D151DE214F3040405150562
:101E200048F0E216F3060407150720F4E20CF31C51
:101E3000041D151DE21AF30A040B150BD801C70186
:101E400062960FAC629704C0B695A7959795879553
:101E50000A94D2F789A79AA7ABA7BCA71DA61EA66E
:101E60001FA618AA898B8AA58A8B8BA58B8B8CA51C
:101E70008C8B8DA58D8B2FC36A147B048C049D04E1
:101E800048F4498B5A8B6B8B7C8B8D8B9E8B2F8B65
:101E9000388F27C300E0A01600E0B00601E0C006BE
:101EA00000E0D00688F41FEFA116B104C104D104EC
:101EB00039F030F028E0E22EF12C012D112D18C060
:101EC000EE24FF24870114C020E0A21620E0B20611
:101ED00020E0C20621E0D20630F098E1E92EF12C94
:101EE000012D112D05C080E1E82EF12C012D112DC1
:101EF000D601C5010E2C04C0B695A7959795879578
:101F00000A94D2F78A569F4FDC012C9180E290E030
:101F1000A0E0B0E08E199F09A00BB10B821B9109C4
:101F2000A109B1090097A105B10509F059C0A6148E
:101F3000B704C804D90470F0E896ECACFDAC0EAD63
:101F40001FADE897E214F3040405150518F4D80151
:101F5000C7012FC0E8968CAD9DADAEADBFADE89783
:101F600082199309A409B509A40193012A193B090F
:101F70004C095D09AA24BB246501E8966CAC7DACD4
:101F80008EAC9FACE897681679068A069B0628F403
:101F900011E0A12EB12CC12CD12C79018A01EA18B3
:101FA000FB080C091D096196ECAEFDAE0EAF1FAF2C
:101FB000619789A79AA7ABA7BCA761960CAD1DAD89
:101FC0002EAD3FAD61970DA71EA72FA738AB898B0C
:101FD0008AA58A8B8BA58B8B8CA58C8B0D8B7BC25A
:101FE000E3968FAFE397A6019501082E04C0220F58
:101FF000331F441F551F0A94D2F710E2181BE296B4
:102000001FAFE297D201C101012E04C0B695A7957A
:10201000979587950A94D2F75C016D01A22AB32A9D
:10202000C42AD52A2596ACAEBDAECEAEDFAE25977E
:1020300072016101E3960FACE39704C0CC0CDD1C88
:10204000EE1CFF1C0A94D2F72196CCAEDDAEEEAEAC
:10205000FFAE219764015301012E04C0D694C794AA
:10206000B794A7940A94D2F7A4019301E3960FAC16
:10207000E39704C0220F331F441F551F0A94D2F761
:10208000E8968CAD9DADAEADBFADE89704C0B695FA
:10209000A795979587951A95D2F77C018D01E22A2D
:1020A000F32A042B152BE9AEFAAE0BAF1CAFE89662
:1020B0000CAD1DAD2EAD3FADE897E3960FACE397A9
:1020C00004C0000F111F221F331F0A94D2F70DAB5B
:1020D0001EAB2FAB38AF25962CAD3DAD4EAD5FADF1
:1020E00025973A018824992440705070A5962CAF0A
:1020F0003DAF4EAF5FAFA597C601B501A4019301F7
:102100000E9444317B018C01C601B501A4019301F9
:102110000E944431C901DA011C012D01C201B10143
:10212000A5962CAD3DAD4EAD5FADA5970E94253176
:102130009B01AC018701FF24EE24A9ACBAACCBAC67
:10214000DCACC601AA27BB2757016801A82AB92A17
:10215000CA2ADB2AA216B306C406D50610F50894CF
:1021600021083108410851082596ECACFDAC0EADB4
:102170001FAD2597AE0CBF1CC01ED11EAE14BF04F0
:10218000C006D10670F0A216B306C406D50648F400
:1021900008942108310841085108AE0CBF1CC01E2C
:1021A000D11EA21AB30AC40AD50AC601B501A401F8
:1021B00093010E9444317B018C01C601B501A40149
:1021C00093010E944431C901DA013C014D01C4016F
:1021D000B301A5962CAD3DAD4EAD5FADA5970E9468
:1021E00025319B01AC018701FF24EE2489AD9AAD16
:1021F000ABADBCADA070B07057016801A82AB92A78
:10220000CA2ADB2AA216B306C406D50610F508941E
:10221000610871088108910825966CAD7DAD8EAD81
:102220009FAD2597A60EB71EC81ED91EA616B706C7
:10223000C806D90670F0A216B306C406D50648F43F
:1022400008946108710881089108A60EB71EC81E7F
:10225000D91ED601C501821B930BA40BB50B89AB0C
:102260009AABABABBCABD101992788278401730132
:10227000E82AF92A0A2B1B2B8FEFA82E8FEFB82EF6
:10228000C12CD12CAE20BF20C022D1227801002742
:10229000112721966CAC7DAC8EAC9FAC21972FEFB3
:1022A0003FEF40E050E06222732284229522219683
:1022B0006CAD7DAD8EAD9FAD2197AC0166277727C4
:1022C000AD964CAF5DAF6EAF7FAFAD97C601B501B8
:1022D000A40193010E942531A9966CAF7DAF8EAF0A
:1022E0009FAFA997C601B501AD962CAD3DAD4EADE2
:1022F0005FADAD970E9425311B012C01C801B701CC
:10230000A40193010E9425315B016C01C801B70152
:10231000AD962CAD3DAD4EAD5FADAD970E94253174
:102320007B018C01A6019501220D331D441D551D15
:10233000A9966CAC7DAC8EAC9FACA997C401AA27C2
:10234000BB27280F391F4A1F5B1F2A153B054C0569
:102350005D0548F4812C912CE1E0AE2EB12CE80C07
:10236000F91C0A1D1B1DCA01AA27BB2757016801BA
:10237000A80EB91ECA1EDB1EA90133272227A99663
:102380008CAD9DADAEADBFADA997A070B070280F5C
:10239000391F4A1F5B1FE9A8FAA80BA91CA9EA1458
:1023A000FB040C051D0570F0AE14BF04C006D10679
:1023B00089F56DA97EA98FA998AD62177307840767
:1023C000950740F5DA01C90121966CAC7DAC8EAC65
:1023D0009FAC219786199709A809B9092596ECACF5
:1023E000FDAC0EAD1FAD2597AE18BF08C00AD10ACF
:1023F000EE24FF248701281739074A075B0728F4D2
:1024000021E0E22EF12C012D112DAE18BF08C00ADB
:10241000D10A02C0DA01C9016DA87EA88FA898ACC4
:10242000681A790A8A0A9B0A09A91AA92BA93CA940
:102430000A191B092C093D0958016901222433247A
:1024400021012DA93EA94FA958AD261537054805EC
:10245000590528F481E0282E312C412C512C86017D
:102460007501E218F30804091509A8019701E2961D
:102470000FACE29704C0220F331F441F551F0A946C
:10248000D2F7D401C301E3960FACE39704C0B6952D
:10249000A795979587950A94D2F7282B392B4A2B25
:1024A0005B2B29A73AA74BA75CA7E3960FACE39752
:1024B00004C016950795F794E7940A94D2F7EDA611
:1024C000FEA60FA718AB298B8AA58A8B8BA58B8BB1
:1024D0008CA58C8BED8A8EA58E8B8FA58F8B88A972
:1024E000888FE1964CAD5DAD6EAD7FADE197411546
:1024F00051056105710509F467C089892A893B89FD
:102500004C895D89AE89BF89188DF82FF19591E0CE
:102510001F1608F090E0822F819521E0181608F030
:1025200020E0E82FE91B91E08E1708F090E0292BBE
:10253000832F819531E0181608F030E0782F721B58
:1025400091E0871708F090E0392B842F819521E0E6
:10255000181608F020E0682F631B91E0861708F03A
:1025600090E0292B852F819531E0181608F030E096
:10257000582F521B91E0851708F090E0392B8A2FD5
:10258000819521E0181608F020E0482F431B91E0C8
:10259000841708F090E0292B8B2F819591E0181675
:1025A00008F090E0382F321B21E0831708F020E07C
:1025B000922B812F8195891BF98BEA8B7B8B6C8BFE
:1025C0005D8B4E8B3F8B888F29893A894B895C893B
:1025D0006D897E898F89988DC958DF4FE2E10C940F
:1025E0008231A0E0B0E0E7EFF2E10C946631DC016B
:1025F0002B01FA019C91923008F439C1EB018881DA
:10260000823008F433C1943069F4843009F02FC16A
:1026100011969C9111978981981709F428C1AEE809
:10262000B0E025C1843009F421C18230A9F4923090
:1026300009F01DC19A01AD0188E0EA010990AE01DF
:10264000E90109929E018150C1F7E2018981119649
:102650009C918923818308C1923009F407C11296A5
:102660002D903C901397EB018A819B811496AD903D
:10267000BD90CD90DC901797EC80FD800E811F817E
:102680009101281B390BB90137FF04C06627772752
:10269000621B730B603271050CF061C012161306D9
:1026A0006CF537014801062E04C096948794779400
:1026B00067940A94D2F721E030E040E050E004C093
:1026C000220F331F441F551F6A95D2F72150304007
:1026D000404050402E213F214023512321153105F8
:1026E0004105510521F021E030E040E050E0790162
:1026F0008A01E628F728082919293CC0232BD1F1A3
:10270000260E371E35014601062E04C09694879486
:10271000779467940A94D2F721E030E040E050E0EB
:1027200004C0220F331F441F551F6A95D2F7215052
:102730003040404050402A213B214C215D21211551
:1027400031054105510521F021E030E040E050E045
:1027500059016A01A628B728C828D9280BC08215B4
:1027600093052CF01C01AA24BB24650103C0EE24B0
:10277000FF24870111969C91D20111968C91981794
:1027800009F445C0992339F0A80197012A193B099A
:102790004C095D0906C0A60195012E193F09400BA1
:1027A000510B57FD08C01182338222822483358366
:1027B000468357831DC081E081833382228288272C
:1027C0009927DC01821B930BA40BB50B84839583A3
:1027D000A683B7830DC0220F331F441F551F2483C8
:1027E00035834683578382819381019793838283C4
:1027F0002481358146815781DA01C9010197A109F8
:10280000B1098F5F9F4FAF4FBF4328F30BC0918338
:1028100033822282EA0CFB1C0C1D1D1DE482F58212
:102820000683178383E08083248135814681578125
:1028300057FF1AC0C901AA2797FDA095BA2F81702A
:102840009070A070B0705695479537952795822B5C
:10285000932BA42BB52B84839583A683B783828186
:102860009381019693838283DF0101C0D201CD0160
:10287000CDB7DEB7E2E10C948231A0E2B0E0E3E450
:10288000F4E10C94723169837A838B839C832D836A
:102890003E834F835887E9E0EE2EF12CEC0EFD1EAF
:1028A000CE010196B7010E94541A8E010F5E1F4F90
:1028B000CE010596B8010E94541A8A8991E08927B1
:1028C0008A8BC701B801AE01475E5F4F0E94F112CB
:1028D0000E947F19A096E6E00C948E31A0E2B0E051
:1028E000E4E7F4E10C94723169837A838B839C83EF
:1028F0002D833E834F835887F9E0EF2EF12CEC0EA9
:10290000FD1ECE010196B7010E94541A8E010F5E82
:102910001F4FCE010596B8010E94541AC701B80195
:10292000AE01475E5F4F0E94F1120E947F19A09690
:10293000E6E00C948E31A0E2B0E0E1EAF4E10C9420
:10294000663169837A838B839C832D833E834F8397
:102950005887CE010196BE01675F7F4F0E94541ACF
:10296000CE010596BE016F5E7F4F0E94541A998575
:10297000923088F089898230C8F0943019F482301E
:1029800051F404C0843029F4923081F48EE890E050
:10299000C6C0923049F420E09A858A89981321E0D4
:1029A0002A87CE010996BBC0823049F420E09A857F
:1029B0008A89981321E02A8BCE014196B0C02D84DC
:1029C0003E844F8458886D887E888F88988CEE244A
:1029D000FF248701AA24BB24650140E050E060E0A9
:1029E00070E0E0E0F0E0C10181709070892BE9F0C7
:1029F000E60CF71C081D191D9A01AB012A0D3B1DA1
:102A00004C1D5D1D80E090E0A0E0B0E0E614F7040E
:102A10000805190520F481E090E0A0E0B0E0BA01DB
:102A2000A901480F591F6A1F7B1FAA0CBB1CCC1C95
:102A3000DD1C97FE08C081E090E0A0E0B0E0A82A8D
:102A4000B92ACA2ADB2A3196E032F10549F0660C30
:102A5000771C881C991C5694479437942794C3CFAD
:102A6000FA85EA892B893C898B859C85280F391F3B
:102A70002E5F3F4F17C0CA0181709070892B61F0A3
:102A800016950795F794E79480E090E0A0E0B0E811
:102A9000E82AF92A0A2B1B2B7695679557954795B7
:102AA0002F5F3F4F77FDE7CF0CC0440F551F661FC8
:102AB000771F17FD4160EE0CFF1C001F111F2150F6
:102AC0003040403090E0590790E0690790E4790782
:102AD00060F32B8F3C8FDB01CA018F779070A07061
:102AE000B07080349105A105B10561F447FD0AC0BD
:102AF000E114F1040105110529F0405C5F4F6F4FAF
:102B00007F4F40781A8EFE1711F081E08A8F4D8F2B
:102B10005E8F6F8F78A383E0898FCE0149960E94E4
:102B20007F19A096E2E10C948231A8E1B0E0EBE9D4
:102B3000F5E10C946E3169837A838B839C832D83BA
:102B40003E834F835887B9E0EB2EF12CEC0EFD1E2F
:102B5000CE010196B7010E94541A8E010F5E1F4FDD
:102B6000CE010596B8010E94541A2985223008F436
:102B70007EC03989323010F4B8017CC08A859A89C8
:102B800089278A87243011F0223031F4231709F085
:102B90006EC06EE870E06EC0343039F41D861E865B
:102BA0001F86188A1C861B8604C0323021F484E0FC
:102BB0008987B7015FC02B853C858B899C89281B41
:102BC000390B3C872B87ED84FE840F851889AD88EF
:102BD000BE88CF88D88CEA14FB040C051D0540F490
:102BE000EE0CFF1C001F111F215030403C872B872B
:102BF00020E030E040E050E080E090E0A0E0B0E491
:102C000060E070E0EA14FB040C051D0540F0282B81
:102C1000392B4A2B5B2BEA18FB080C091D09B695CA
:102C2000A79597958795EE0CFF1C001F111F6F5FEE
:102C30007F4F6F31710531F7DA01C9018F779070DD
:102C4000A070B07080349105A105B10561F427FD35
:102C50000AC0E114F1040105110529F0205C3F4F81
:102C60004F4F5F4F20782D873E874F87588BBE018F
:102C7000675F7F4FCB010E947F196896EAE00C9452
:102C80008A31A8E1B0E0E7E4F6E10C94723169839F
:102C90007A838B839C832D833E834F83588789E07F
:102CA000E82EF12CEC0EFD1ECE010196B7010E941C
:102CB000541A8E010F5E1F4FCE010596B8010E9477
:102CC000541A8985823040F08989823028F0C70102
:102CD000B8010E94CC1A01C081E06896E6E00C942D
:102CE0008E31A8E1B0E0E7E7F6E10C947231698338
:102CF0007A838B839C832D833E834F83588789E01F
:102D0000E82EF12CEC0EFD1ECE010196B7010E94BB
:102D1000541A8E010F5E1F4FCE010596B8010E9416
:102D2000541A8985823040F08989823028F0C701A1
:102D3000B8010E94CC1A01C08FEF6896E6E00C94AF
:102D40008E31A8E1B0E0E7EAF6E10C9472316983D4
:102D50007A838B839C832D833E834F83588789E0BE
:102D6000E82EF12CEC0EFD1ECE010196B7010E945B
:102D7000541A8E010F5E1F4FCE010596B8010E94B6
:102D8000541A8985823040F08989823028F0C70141
:102D9000B8010E94CC1A01C08FEF6896E6E00C944F
:102DA0008E31A8E1B0E0E7EDF6E10C947231698371
:102DB0007A838B839C832D833E834F83588789E05E
:102DC000E82EF12CEC0EFD1ECE010196B7010E94FB
:102DD000541A8E010F5E1F4FCE010596B8010E9456
:102DE000541A8985823040F08989823028F0C701E1
:102DF000B8010E94CC1A01C081E06896E6E00C940C
:102E00008E31A8E0B0E0E7E0F7E10C946F319B0170
:102E1000AC0183E08983DA01C9018827B7FD839576
:102E20009927AA27BB27B82E211531054105510541
:102E300019F482E089833AC08823A9F0203080E029
:102E4000380780E0480780E8580729F460E070E020
:102E500080E09FEC30C0EE24FF248701E21AF30AE1
:102E6000040B150B02C079018A018EE1C82ED12C0A
:102E7000DC82CB82ED82FE820F831887C801B70106
:102E80000E94301901971816190684F4082E04C000
:102E9000EE0CFF1C001F111F0A94D2F7ED82FE8278
:102EA0000F831887C81AD90ADC82CB82BA82CE0176
:102EB00001960E947F192896E9E00C948B31ACE0D2
:102EC000B0E0E5E6F7E10C94763169837A838B8391
:102ED0009C83CE010196BE016B5F7F4F0E94541A06
:102EE0008D81823061F1823050F1843021F48E8105
:102EF000882351F12EC02F81388537FD20C06E8187
:102F00002F3131051CF06623F9F023C08EE190E0EB
:102F1000821B930B29853A854B855C8504C05695A9
:102F20004795379527958A95D2F76623B1F0509546
:102F30004095309521953F4F4F4F5F4F0EC020E099
:102F400030E040E050E009C02FEF3FEF4FEF5FE788
:102F500004C020E030E040E050E8B901CA012C96FE
:102F6000E2E00C949231A8E0B0E0E9EBF7E10C94D8
:102F70006E317B018C01611571058105910519F494
:102F800082E0898360C083E089838EE1C82ED12CE2
:102F9000DC82CB82ED82FE820F831887C801B701E5
:102FA0000E943019FC013197F7FF3BC022273327DD
:102FB0002E1B3F0B57016801022E04C0D694C79404
:102FC000B794A7940A94D2F740E050E060E070E034
:102FD00081E090E0A0E0B0E004C0880F991FAA1F34
:102FE000BB1F2A95D2F70197A109B1098E219F2114
:102FF000A023B1230097A105B10521F041E050E0E5
:1030000060E070E04A295B296C297D294D835E834D
:103010006F8378878EE190E08E1B9F0B9C838B8360
:1030200012C0309781F00E2E04C0EE0CFF1C001F62
:10303000111F0A94D2F7ED82FE820F831887CE1AF1
:10304000DF0ADC82CB821A82CE0101960E947F19B0
:103050002896EAE00C948A31EF92FF920F93DF9367
:10306000CF93CDB7DEB760970FB6F894DEBF0FBE33
:10307000CDBFA82F002309F461C07E010894E11C94
:10308000F11C88E0F70111928A95E9F729833A83C8
:103090004B835C836D837E83AF83988780E2801B44
:1030A000E82FFF27E7FDF09549815A816B817C81EC
:1030B000181684F019861A861B861C86882799277D
:1030C0008E1B9F0B04C0440F551F661F771F8A95E8
:1030D000D2F728C0202F332727FD3095DB01CA0106
:1030E000022E04C0880F991FAA1FBB1F0A94D2F793
:1030F00089879A87AB87BC8704C076956795579573
:103100004795EA95D2F78D819E81AF81B88504C03D
:10311000880F991FAA1FBB1F2A95D2F7482B592B3E
:103120006A2B7B2B4D875E876F87788B29853A8545
:103130004B855C856D857E85AF8598898A2F6096E5
:103140000FB6F894DEBF0FBECDBFCF91DF910F91C8
:10315000FF90EF900895EF92FF920F93DF93CF933C
:10316000CDB7DEB760970FB6F894DEBF0FBECDBF08
:10317000A82F002309F467C07E010894E11CF11C0C
:1031800088E0F70111928A95E9F729833A834B8306
:103190005C836D837E83AF83988780E2801B4D8143
:1031A0005E816F817885E82FFF27E7FDF09518167F
:1031B000B4F0DB01CA01BB0F880B982FDC018D87AF
:1031C0009E87AF87B88B882799278E1B9F0B04C0DB
:1031D00075956795579547958A95D2F728C0202F02
:1031E000332727FD3095DB01CA01022E04C0B595B7
:1031F000A795979587950A94D2F78D879E87AF8775
:10320000B88B04C0440F551F661F771FEA95D2F78D
:1032100089819A81AB81BC8104C0B695A7959795A9
:1032200087952A95D2F7482B592B6A2B7B2B4987F8
:103230005A876B877C8729853A854B855C856D85A8
:103240007E85AF8598898A2F60960FB6F894DEBF89
:103250000FBECDBFCF91DF910F91FF90EF900895FA
:10326000EF92FF920F931F937B018C0180E0E81691
:1032700080E0F80681E0080780E0180788F48FEF07
:10328000E816F1040105110531F028F088E090E01E
:10329000A0E0B0E017C080E090E0A0E0B0E012C095
:1032A00080E0E81680E0F80680E0080781E0180773
:1032B00028F088E190E0A0E0B0E004C080E190E078
:1032C000A0E0B0E020E230E040E050E0281B390B05
:1032D0004A0B5B0B04C016950795F794E7948A9503
:1032E000D2F7F701EA56FF4F8081281B31094109C7
:1032F0005109C9011F910F91FF90EF900895DF923E
:10330000EF92FF920F931F93FC01E480F5800681FA
:103310001781D1808081823048F480E090E0A0E184
:10332000B0E0E82AF92A0A2B1B2BA5C0843009F447
:103330009FC0823021F4EE24FF24870105C0E114F0
:10334000F1040105110519F4E0E0F0E096C0628196
:1033500073819FEF623879070CF05BC022E83FEF82
:10336000261B370B2A3131052CF020E030E040E0FD
:1033700050E02AC0B801A701022E04C076956795D7
:10338000579547950A94D2F781E090E0A0E0B0E02D
:1033900004C0880F991FAA1FBB1F2A95D2F7019757
:1033A000A109B1098E219F21A023B1230097A10576
:1033B000B10521F081E090E0A0E0B0E09A01AB011E
:1033C000282B392B4A2B5B2BDA01C9018F779070A0
:1033D000A070B07080349105A105B10539F427FFC4
:1033E00009C0205C3F4F4F4F5F4F04C0215C3F4FEF
:1033F0004F4F5F4FE0E0F0E02030A0E03A07A0E060
:103400004A07A0E45A0710F0E1E0F0E079018A01F0
:1034100027C06038710564F5FB01E158FF4FD80102
:10342000C7018F779070A070B07080349105A105AE
:10343000B10539F4E7FE0DC080E490E0A0E0B0E013
:1034400004C08FE390E0A0E0B0E0E80EF91E0A1F90
:103450001B1F17FF05C016950795F794E794319643
:1034600087E016950795F794E7948A95D1F705C0FC
:10347000EE24FF248701EFEFF0E06E2F67956627BB
:103480006795902F9F77D794DD24D7948E2F8695BC
:10349000492F462B582F5D29B701CA011F910F9163
:1034A000FF90EF90DF900895FC01DB014081518196
:1034B0002281622F6F7770E0221F2227221F9381C3
:1034C000892F880F822B282F30E0991F9927991F69
:1034D00011969C93119721153105A9F541155105B8
:1034E0006105710511F482E037C082E89FEF139601
:1034F0009C938E9312979A01AB0167E0220F331FC2
:10350000441F551F6A95D1F783E08C930DC0220F9D
:10351000331F441F551F12968D919C91139701974D
:1035200013969C938E931297203080E0380780E0AA
:10353000480780E4580758F314962D933D934D9314
:103540005C93179708952F3F310579F44115510584
:103550006105710519F484E08C93089564FF03C03C
:1035600081E08C9312C01C9210C02F5730401396EC
:103570003C932E93129783E08C9387E0440F551F62
:10358000661F771F8A95D1F7706414964D935D93EB
:103590006D937C93179708951F93DC01FB019C9119
:1035A000923008F447C08081823008F443C09430E0
:1035B00051F411961C91843099F58181682F70E047
:1035C000611B71093FC0843021F0923031F48230A8
:1035D000B9F18181882389F12DC011961C91119731
:1035E0008230F1F081811817D9F412962D913C9117
:1035F0001397828193818217930794F028173907D4
:10360000BCF014968D919D910D90BC91A02D2481BC
:10361000358146815781281739074A075B0718F417
:10362000112341F00AC082179307A407B50740F49D
:10363000112319F061E070E005C06FEF7FEF02C069
:1036400060E070E0CB011F910895DF93CF9300D02D
:103650000F92CDB7DEB789836A834B83898181342A
:1036600059F58B818823A1F0AAE3B0E0EAE3F0E00A
:103670008081482F8A81282F30E081E090E0022E5F
:1036800002C0880F991F0A94E2F7842B8C9314C010
:10369000AAE3B0E0EAE3F0E08081482F8A81282F96
:1036A00030E081E090E0022E02C0880F991F0A945A
:1036B000E2F7809584238C938981823459F58B813C
:1036C0008823A1F0A7E3B0E0E7E3F0E08081482F92
:1036D0008A81282F30E081E090E0022E02C0880F1E
:1036E000991F0A94E2F7842B8C9314C0A7E3B0E0EF
:1036F000E7E3F0E08081482F8A81282F30E081E0E5
:1037000090E0022E02C0880F991F0A94E2F780957C
:1037100084238C938981833459F58B818823A1F08C
:10372000A4E3B0E0E4E3F0E08081482F8A81282F11
:1037300030E081E090E0022E02C0880F991F0A94C9
:10374000E2F7842B8C9314C0A4E3B0E0E4E3F0E050
:103750008081482F8A81282F30E081E090E0022E7E
:1037600002C0880F991F0A94E2F7809584238C93F6
:103770008981843459F58B818823A1F0A1E3B0E0DD
:10378000E1E3F0E08081482F8A81282F30E081E05A
:1037900090E0022E02C0880F991F0A94E2F7842B52
:1037A0008C9314C0A1E3B0E0E1E3F0E08081482F06
:1037B0008A81282F30E081E090E0022E02C0880F3D
:1037C000991F0A94E2F7809584238C930F900F90B1
:1037D0000F90CF91DF910895DF93CF9300D00F9298
:1037E000CDB7DEB789836A834B838981813459F5EC
:1037F0008B818823A1F0ABE3B0E0EBE3F0E08081C4
:10380000482F8A81282F30E081E090E0022E02C00C
:10381000880F991F0A94E2F7842B8C9314C0ABE3B2
:10382000B0E0EBE3F0E08081482F8A81282F30E080
:1038300081E090E0022E02C0880F991F0A94E2F7FF
:10384000809584238C938981823459F58B818823D8
:10385000A1F0A8E3B0E0E8E3F0E08081482F8A819E
:10386000282F30E081E090E0022E02C0880F991FDF
:103870000A94E2F7842B8C9314C0A8E3B0E0E8E349
:10388000F0E08081482F8A81282F30E081E090E0AD
:10389000022E02C0880F991F0A94E2F780958423B4
:1038A0008C938981833459F58B818823A1F0A5E31A
:1038B000B0E0E5E3F0E08081482F8A81282F30E0F6
:1038C00081E090E0022E02C0880F991F0A94E2F76F
:1038D000842B8C9314C0A5E3B0E0E5E3F0E0808195
:1038E000482F8A81282F30E081E090E0022E02C02C
:1038F000880F991F0A94E2F7809584238C9389811D
:10390000843459F58B818823A1F0A2E3B0E0E2E38F
:10391000F0E08081482F8A81282F30E081E090E01C
:10392000022E02C0880F991F0A94E2F7842B8C9311
:1039300014C0A2E3B0E0E2E3F0E08081482F8A8186
:10394000282F30E081E090E0022E02C0880F991FFE
:103950000A94E2F7809584238C930F900F900F9038
:10396000CF91DF910895DF93CF9300D00F92CDB721
:10397000DEB789836A8389818134F1F4E9E3F0E079
:103980008081482F50E08A81282F30E081E090E04C
:1039900002C0880F991F2A95E2F79A01282339233C
:1039A0008A81882F90E0A90102C0559547958A9594
:1039B000E2F7CA018B8364C089818234F1F4E6E3C3
:1039C000F0E08081482F50E08A81282F30E081E0AC
:1039D00090E002C0880F991F2A95E2F79A012823E8
:1039E00039238A81882F90E0A90102C05595479517
:1039F0008A95E2F7CA018B8343C089818334F1F44D
:103A0000E3E3F0E08081482F50E08A81282F30E006
:103A100081E090E002C0880F991F2A95E2F79A0191
:103A2000282339238A81882F90E0A90102C0559567
:103A300047958A95E2F7CA018B8322C08981843435
:103A4000F1F4E0E3F0E08081482F50E08A81282FF4
:103A500030E081E090E002C0880F991F2A95E2F7DC
:103A60009A01282339238A81882F90E0A90102C076
:103A7000559547958A95E2F7CA018B8301C01B8251
:103A80008B810F900F900F90CF91DF910895DF936E
:103A9000CF9300D0CDB7DEB789836A838981813423
:103AA00099F4ABE3B0E0EBE3F0E08081482F8A814A
:103AB000282F30E081E090E0022E02C0880F991F8D
:103AC0000A94E2F784278C938981823499F4A8E3DD
:103AD000B0E0E8E3F0E08081482F8A81282F30E0D1
:103AE00081E090E0022E02C0880F991F0A94E2F74D
:103AF00084278C938981833499F4A5E3B0E0E5E3CE
:103B0000F0E08081482F8A81282F30E081E090E02A
:103B1000022E02C0880F991F0A94E2F784278C9323
:103B20008981843499F4A2E3B0E0E2E3F0E080819B
:103B3000482F8A81282F30E081E090E0022E02C0D9
:103B4000880F991F0A94E2F784278C930F900F90A7
:103B5000CF91DF910895DF93CF9300D0CDB7DEB73B
:103B600089836A838981813421F4EAE3F0E08A81E0
:103B700080838981823421F4E7E3F0E08A818083C5
:103B80008981833421F4E4E3F0E08A8180838981B0
:103B9000843421F4E1E3F0E08A8180830F900F9078
:103BA000CF91DF910895DF93CF9300D0CDB7DEB7EB
:103BB00089836A838981813421F4EBE3F0E08A818F
:103BC00080838981823421F4E8E3F0E08A81808374
:103BD0008981833421F4E5E3F0E08A81808389815F
:103BE000843421F4E2E3F0E08A8180830F900F9027
:103BF000CF91DF910895DF93CF9300D00F92CDB78F
:103C0000DEB789838981813429F4E9E3F0E080819A
:103C10008A8319C08981823429F4E6E3F0E0808147
:103C20008A8311C08981833429F4E6E3F0E080813E
:103C30008A8309C08981843429F4E0E3F0E080813B
:103C40008A8301C002C08A818B838B810F900F9081
:103C50000F90CF91DF910895DF93CF9300D000D0E4
:103C60000F92CDB7DEB789836A834B838981282F72
:103C700030E03D832C838C819D818234910509F451
:103C800044C02C813D812334310534F48C819D81E5
:103C90008134910571F0BCC02C813D812334310504
:103CA00009F45FC08C819D818434910509F485C03D
:103CB000AFC08B818130A1F4ABE3B0E0EBE3F0E087
:103CC0008081482F8A81282F30E081E090E0022E09
:103CD00002C0880F991F0A94E2F7842B8C9398C036
:103CE000ABE3B0E0EBE3F0E08081482F8A81282F3E
:103CF00030E081E090E0022E02C0880F991F0A9404
:103D0000E2F7809584238C9383C08B818130A1F46A
:103D1000A8E3B0E0E8E3F0E08081482F8A81282F13
:103D200030E081E090E0022E02C0880F991F0A94D3
:103D3000E2F7842B8C936CC0A8E3B0E0E8E3F0E0FA
:103D40008081482F8A81282F30E081E090E0022E88
:103D500002C0880F991F0A94E2F7809584238C9300
:103D600057C08B818130A1F4A5E3B0E0E5E3F0E03A
:103D70008081482F8A81282F30E081E090E0022E58
:103D800002C0880F991F0A94E2F7842B8C9340C0DD
:103D9000A5E3B0E0E5E3F0E08081482F8A81282F99
:103DA00030E081E090E0022E02C0880F991F0A9453
:103DB000E2F7809584238C932BC08B818130A1F412
:103DC000A2E3B0E0E2E3F0E08081482F8A81282F6F
:103DD00030E081E090E0022E02C0880F991F0A9423
:103DE000E2F7842B8C9314C0A2E3B0E0E2E3F0E0AE
:103DF0008081482F8A81282F30E081E090E0022ED8
:103E000002C0880F991F0A94E2F7809584238C934F
:103E10000F900F900F900F900F90CF91DF9108951A
:103E2000DF93CF9300D0CDB7DEB789836A838981D2
:103E30006A8141E00E94251B0F900F90CF91DF9186
:103E40000895DF93CF9300D0CDB7DEB789836A831F
:103E500089816A8140E00E94251B0F900F90CF91CD
:103E6000DF910895DF93CF9300D000D0CDB7DEB7B8
:103E700089836A838A818F708A838981282F30E0C1
:103E80003C832B838B819C818234910529F12B818A
:103E90003C812334310534F48B819C81813491053C
:103EA00061F047C02B813C812334310521F18B81A6
:103EB0009C818434910571F13CC0ABE3B0E0EBE34D
:103EC000F0E08081807F8C93ABE3B0E0EBE3F0E047
:103ED00090818A81892B8C93A8E3B0E0E8E3F0E03D
:103EE0008081807F8C93A8E3B0E0E8E3F0E09081EC
:103EF0008A81892B8C93A5E3B0E0E5E3F0E0808133
:103F0000807F8C93A5E3B0E0E5E3F0E090818A81C7
:103F1000892B8C93A2E3B0E0E2E3F0E08081807F24
:103F20008C93A2E3B0E0E2E3F0E090818A81892BF8
:103F30008C930F900F900F900F90CF91DF91089579
:103F4000DF93CF9300D000D0CDB7DEB789836A83EB
:103F50008A818295807F8A838981282F30E03C8303
:103F60002B838B819C818234910529F12B813C81AB
:103F70002334310534F48B819C818134910561F0C7
:103F800047C02B813C812334310521F18B819C81F9
:103F90008434910571F13CC0ABE3B0E0EBE3F0E0B9
:103FA00080818F708C93ABE3B0E0EBE3F0E0908125
:103FB0008A81892B8C93A8E3B0E0E8E3F0E080816C
:103FC0008F708C93A8E3B0E0E8E3F0E090818A8101
:103FD000892B8C93A5E3B0E0E5E3F0E080818F705E
:103FE0008C93A5E3B0E0E5E3F0E090818A81892B32
:103FF0008C93A2E3B0E0E2E3F0E080818F708C93D9
:10400000A2E3B0E0E2E3F0E090818A81892B8C9317
:104010000F900F900F900F90CF91DF910895DF9345
:10402000CF93CDB7DEB7E8970FB6F894DEBF0FBEDB
:10403000CDBF80E090E0A8ECB2E48DAB9EABAFAB1F
:10404000B8AF6DA97EA98FA998AD20E030E04AEF06
:1040500054E40E949B14DC01CB0189AB9AABABAB5F
:10406000BCAB69A97AA98BA99CA920E030E040E803
:104070005FE30E94D11688232CF481E090E098AB96
:104080008FA73FC069A97AA98BA99CA920E03FEF1F
:104090004FE757E40E94711618164CF56DA97EA9DA
:1040A0008FA998AD20E030E040E251E40E949B14DB
:1040B000DC01CB01BC01CD010E944900DC01CB0138
:1040C00098AB8FA70FC088EC90E09EA78DA78DA519
:1040D0009EA50197F1F79EA78DA78FA598A9019797
:1040E00098AB8FA78FA598A9009769F714C069A905
:1040F0007AA98BA99CA90E944900DC01CB0198AB4D
:104100008FA78FA598A99CA78BA78BA59CA5019786
:10411000F1F79CA78BA784E463E041E00E94251B94
:1041200084E461E041E00E94251B84E462E041E018
:104130000E94251B82E46FEF0E94AB1D88E30E9462
:10414000092280E090E0A0E8BFE38FA398A7A9A789
:10415000BAA76FA178A589A59AA520E030E04AEF1B
:1041600054E40E949B14DC01CB018BA39CA3ADA360
:10417000BEA36BA17CA18DA19EA120E030E040E810
:104180005FE30E94D11688232CF481E090E09AA38B
:1041900089A33FC06BA17CA18DA19EA120E03FEF30
:1041A0004FE757E40E94711618164CF56FA178A5D9
:1041B00089A59AA520E030E040E251E40E949B14DA
:1041C000DC01CB01BC01CD010E944900DC01CB0127
:1041D0009AA389A30FC088EC90E098A38F8F8F8D4E
:1041E00098A10197F1F798A38F8F89A19AA10197C0
:1041F0009AA389A389A19AA1009769F714C06BA11A
:104200007CA18DA19EA10E944900DC01CB019AA353
:1042100089A389A19AA19E8F8D8F8D8D9E8D0197E7
:10422000F1F79E8F8D8F8EE00E94092280E090E052
:10423000A0E8BFE3898F9A8FAB8FBC8F698D7A8D91
:104240008B8D9C8D20E030E04AEF54E40E949B145B
:10425000DC01CB018D8B9E8BAF8BB88F6D897E89F6
:104260008F89988D20E030E040E85FE30E94D1160E
:1042700088232CF481E090E09C8B8B8B3FC06D8970
:104280007E898F89988D20E03FEF4FE757E40E94A9
:10429000711618164CF5698D7A8D8B8D9C8D20E0EA
:1042A00030E040E251E40E949B14DC01CB01BC01F0
:1042B000CD010E944900DC01CB019C8B8B8B0FC090
:1042C00088EC90E09A8B898B89899A890197F1F71C
:1042D0009A8B898B8B899C8901979C8B8B8B8B8983
:1042E0009C89009769F714C06D897E898F89988DA4
:1042F0000E944900DC01CB019C8B8B8B8B899C89B4
:10430000988B8F878F8598890197F1F7988B8F8786
:1043100081E00E94092280E090E0A0E2B1E48B8776
:104320009C87AD87BE876B857C858D859E8520E0CB
:1043300030E04AEF54E40E949B14DC01CB018F83F0
:104340009887A987BA876F81788589859A8520E0C3
:1043500030E040E85FE30E94D11688232CF481E02E
:1043600090E09E838D833FC06F81788589859A8593
:1043700020E03FEF4FE757E40E94711618164CF506
:104380006B857C858D859E8520E030E040E251E4A0
:104390000E949B14DC01CB01BC01CD010E944900AD
:1043A000DC01CB019E838D830FC088EC90E09C8361
:1043B0008B838B819C810197F1F79C838B838D810B
:1043C0009E8101979E838D838D819E81009769F7E1
:1043D00014C06F81788589859A850E944900DC0127
:1043E000CB019E838D838D819E819A838983898170
:1043F0009A810197F1F79A83898386E00E940922C6
:10440000E8960FB6F894DEBF0FBECDBFCF91DF9117
:104410000895DF93CF93CDB7DEB72F970FB6F894FB
:10442000DEBF0FBECDBF8F8784E461E040E00E9415
:10443000EC1B82E46F850E94D31D0E942B2380E039
:1044400090E0A0E8BFE38B879C87AD87BE876B8534
:104450007C858D859E8520E030E04AEF54E40E9403
:104460009B14DC01CB018F839887A987BA876F8162
:10447000788589859A8520E030E040E85FE30E94F6
:10448000D11688232CF481E090E09E838D833FC079
:104490006F81788589859A8520E03FEF4FE757E463
:1044A0000E94711618164CF56B857C858D859E854E
:1044B00020E030E040E251E40E949B14DC01CB019B
:1044C000BC01CD010E944900DC01CB019E838D839C
:1044D0000FC088EC90E09C838B838B819C8101973B
:1044E000F1F79C838B838D819E8101979E838D83C1
:1044F0008D819E81009769F714C06F8178858985C9
:104500009A850E944900DC01CB019E838D838D81B9
:104510009E819A83898389819A810197F1F79A8391
:1045200089832F960FB6F894DEBF0FBECDBFCF9113
:10453000DF910895DF93CF93CDB7DEB72F970FB6F6
:10454000F894DEBF0FBECDBF8F8784E461E041E009
:104550000E94EC1B82E46F850E94D31D0E942B23D6
:1045600080E090E0A0E8BFE38B879C87AD87BE87A3
:104570006B857C858D859E8520E030E04AEF54E494
:104580000E949B14DC01CB018F839887A987BA878F
:104590006F81788589859A8520E030E040E85FE387
:1045A0000E94D11688232CF481E090E09E838D83B5
:1045B0003FC06F81788589859A8520E03FEF4FE77E
:1045C00057E40E94711618164CF56B857C858D8515
:1045D0009E8520E030E040E251E40E949B14DC0123
:1045E000CB01BC01CD010E944900DC01CB019E83BF
:1045F0008D830FC088EC90E09C838B838B819C81A2
:104600000197F1F79C838B838D819E8101979E8317
:104610008D838D819E81009769F714C06F817885A5
:1046200089859A850E944900DC01CB019E838D8398
:104630008D819E819A83898389819A810197F1F77F
:104640009A8389832F960FB6F894DEBF0FBECDBF35
:10465000CF91DF910895DF93CF93CDB7DEB76C97FD
:104660000FB6F894DEBF0FBECDBF84E463E041E037
:104670000E94EC1B80E090E0A0E0B0E4898F9A8F6C
:10468000AB8FBC8F698D7A8D8B8D9C8D20E030E057
:104690004AEF54E40E949B14DC01CB018D8B9E8B6E
:1046A000AF8BB88F6D897E898F89988D20E030E03F
:1046B00040E85FE30E94D11688232CF481E090E06B
:1046C0009C8B8B8B3FC06D897E898F89988D20E074
:1046D0003FEF4FE757E40E94711618164CF5698DAD
:1046E0007A8D8B8D9C8D20E030E040E251E40E9479
:1046F0009B14DC01CB01BC01CD010E944900DC010F
:10470000CB019C8B8B8B0FC088EC90E09A8B898BB4
:1047100089899A890197F1F79A8B898B8B899C8972
:1047200001979C8B8B8B8B899C89009769F714C0B0
:104730006D897E898F89988D0E944900DC01CB01AB
:104740009C8B8B8B8B899C89988B8F878F85988985
:104750000197F1F7988B8F8784E463E040E00E9433
:10476000EC1B80E090E0A0E0B0E48B879C87AD87F5
:10477000BE876B857C858D859E8520E030E04AEF85
:1047800054E40E949B14DC01CB018F839887A98796
:10479000BA876F81788589859A8520E030E040E886
:1047A0005FE30E94D11688232CF481E090E09E8381
:1047B0008D833FC06F81788589859A8520E03FEFA2
:1047C0004FE757E40E94711618164CF56B857C85EF
:1047D0008D859E8520E030E040E251E40E949B14EC
:1047E000DC01CB01BC01CD010E944900DC01CB0101
:1047F0009E838D830FC088EC90E09C838B838B819C
:104800009C810197F1F79C838B838D819E81019719
:104810009E838D838D819E81009769F714C06F817F
:10482000788589859A850E944900DC01CB019E83A9
:104830008D838D819E819A83898389819A81019755
:10484000F1F79A8389836C960FB6F894DEBF0FBE9A
:10485000CDBFCF91DF910895DF93CF9300D0CDB737
:10486000DEB79A8389830AC0E981FA8180810E9438
:104870009A2289819A8101969A838983E981FA81B2
:104880008081882389F70F900F90CF91DF91089551
:10489000DF93CF93CDB7DEB72E970FB6F894DEBF78
:1048A0000FBECDBF81E00E94092280E090E0A0E22F
:1048B000B1E48B879C87AD87BE876B857C858D85B2
:1048C0009E8520E030E04AEF54E40E949B14DC0116
:1048D000CB018F839887A987BA876F81788589856F
:1048E0009A8520E030E040E85FE30E94D1168823FB
:1048F0002CF481E090E09E838D833FC06F817885AA
:1049000089859A8520E03FEF4FE757E40E947116B2
:1049100018164CF56B857C858D859E8520E030E0F2
:1049200040E251E40E949B14DC01CB01BC01CD01AB
:104930000E944900DC01CB019E838D830FC088EC6F
:1049400090E09C838B838B819C810197F1F79C8302
:104950008B838D819E8101979E838D838D819E8126
:10496000009769F714C06F81788589859A850E94C0
:104970004900DC01CB019E838D838D819E819A83CA
:10498000898389819A810197F1F79A8389832E9689
:104990000FB6F894DEBF0FBECDBFCF91DF91089563
:1049A000DF93CF93CDB7DEB761970FB6F894DEBF34
:1049B0000FBECDBF888B698B8889833048F4888986
:1049C000882331F08989813118F48989882319F481
:1049D00080E88F870DC08889813021F489898158CA
:1049E0008F8706C08889823019F4898981548F871E
:1049F0008F850E94092280E090E0A0E8BFE38B87CA
:104A00009C87AD87BE876B857C858D859E8520E0E4
:104A100030E04AEF54E40E949B14DC01CB018F8309
:104A20009887A987BA876F81788589859A8520E0DC
:104A300030E040E85FE30E94D11688232CF481E047
:104A400090E09E838D833FC06F81788589859A85AC
:104A500020E03FEF4FE757E40E94711618164CF51F
:104A60006B857C858D859E8520E030E040E251E4B9
:104A70000E949B14DC01CB01BC01CD010E944900C6
:104A8000DC01CB019E838D830FC088EC90E09C837A
:104A90008B838B819C810197F1F79C838B838D8124
:104AA0009E8101979E838D838D819E81009769F7FA
:104AB00014C06F81788589859A850E944900DC0140
:104AC000CB019E838D838D819E819A838983898189
:104AD0009A810197F1F79A83898361960FB6F894CA
:104AE000DEBF0FBECDBFCF91DF910895DF93CF938F
:104AF00000D000D0CDB7DEB78A837C836B838A81F8
:104B0000882F90E00796880F991F880F991F880FAC
:104B1000991F0E94092219820EC08981282F30E036
:104B20008B819C81FC01E20FF31F80810E949A22FD
:104B300089818F5F89838981883078F30F900F9006
:104B40000F900F90CF91DF910895DF93CF930F9245
:104B5000CDB7DEB78983898181500E949A220F9058
:104B6000CF91DF910895DF93CF93CDB7DEB7E5976F
:104B70000FB6F894DEBF0FBECDBF1DAA1092B001D4
:104B80001092B30180E090E0A0E8BFE389AB9AAB5C
:104B9000ABABBCAB18AA80919601813009F0F2C191
:104BA0000E9462308DAB8DA98F3FD1F38DA98033E8
:104BB00008F4A9C08DA98A3308F0A5C08091B0017E
:104BC00085300CF0A0C08091B001882321F48DA91C
:104BD000803309F464C18DA90E949A228091B001AA
:104BE0008F5F8093B0018091B301882309F44CC09A
:104BF0008DA9882F90E0C097AA2797FDA095BA2F7E
:104C0000BC01CD010E940117DC01CB018CA79DA73F
:104C1000AEA7BFA71BA613C06CA57DA58EA59FA59B
:104C200020E030E040E251E40E949515DC01CB0128
:104C30008CA79DA7AEA7BFA78BA58F5F8BA79091D1
:104C4000B3018BA5891740F38091A8019091A90128
:104C5000A091AA01B091AB01BC01CD012CA53DA54D
:104C60004EA55FA50E946E14DC01CB018093A801C4
:104C70009093A901A093AA01B093AB018091B301D5
:104C80008F5F8093B3010BC18091A8019091A9011E
:104C9000A091AA01B091AB01BC01CD0120E030E0B0
:104CA00040E251E40E949B14DC01CB018093A801F7
:104CB0009093A901A093AA01B093AB018DA9882F6D
:104CC00090E0C097AA2797FDA095BA2FBC01CD010F
:104CD0000E940117DC01CB012091A8013091A901AC
:104CE0004091AA015091AB01BC01CD010E946E140C
:104CF000DC01CB018093A8019093A901A093AA01A4
:104D0000B093AB01CCC08DA98D3291F48091B001EC
:104D1000882371F48DA90E949A2280E090E0A0E897
:104D2000BFEB89AB9AABABABBCAB81E088ABB7C098
:104D30008091B001882309F4A0C08DA98B3251F075
:104D40008DA98D3239F08DA98A3221F08DA98F324B
:104D500009F093C08DA98093B2018DA90E949A2277
:104D600080E090E0AAEFB3E48FA398A7A9A7BAA721
:104D70006FA178A589A59AA520E030E04AEF54E418
:104D80000E949B14DC01CB018BA39CA3ADA3BEA30B
:104D90006BA17CA18DA19EA120E030E040E85FE303
:104DA0000E94D11688232CF481E090E09AA389A375
:104DB0003FC06BA17CA18DA19EA120E03FEF4FE7FA
:104DC00057E40E94711618164CF56FA178A589A5B5
:104DD0009AA520E030E040E251E40E949B14DC01FF
:104DE000CB01BC01CD010E944900DC01CB019AA39B
:104DF00089A30FC088EC90E098A38F8F8F8D98A126
:104E00000197F1F798A38F8F89A19AA101979AA38F
:104E100089A389A19AA1009769F714C06BA17CA10D
:104E20008DA19EA10E944900DC01CB019AA389A318
:104E300089A19AA19E8F8D8F8D8D9E8D0197F1F7FF
:104E40009E8F8D8F8091A8019091A901A091AA01B8
:104E5000B091AB01BC01CD0129A93AA94BA95CA92C
:104E60000E949B14DC01CB018093A8019093A901BF
:104E7000A093AA01B093AB010CC18091B301882328
:104E800071F48DA98E3259F48DA90E949A2281E085
:104E90008093B3018091B00182508093B00180E093
:104EA00090E0AAEFB3E4898F9A8FAB8FBC8F698DA6
:104EB0007A8D8B8D9C8D20E030E04AEF54E40E9487
:104EC0009B14DC01CB018D8B9E8BAF8BB88F6D89D2
:104ED0007E898F89988D20E030E040E85FE30E9472
:104EE000D11688232CF481E090E09C8B8B8B3FC003
:104EF0006D897E898F89988D20E03FEF4FE757E4D9
:104F00000E94711618164CF5698D7A8D8B8D9C8DCB
:104F100020E030E040E251E40E949B14DC01CB0130
:104F2000BC01CD010E944900DC01CB019C8B8B8B25
:104F30000FC088EC90E09A8B898B89899A890197B8
:104F4000F1F79A8B898B8B899C8901979C8B8B8B32
:104F50008B899C89009769F723CE6D897E898F891B
:104F6000988D0E944900DC01CB019C8B8B8B8B8937
:104F70009C89988B8F878F8598890197F1F7988BFB
:104F80008F870ECE0E9462308DAB8DA98B3249F097
:104F90008DA98D3231F08DA98A3219F08DA98F3209
:104FA00089F78DA98093B2018DA90E949A2280E091
:104FB00090E0A6E9B3E48B879C87AD87BE876B85BD
:104FC0007C858D859E8520E030E04AEF54E40E9488
:104FD0009B14DC01CB018F839887A987BA876F81E7
:104FE000788589859A8520E030E040E85FE30E947B
:104FF000D11688232CF481E090E09E838D833FC0FE
:105000006F81788589859A8520E03FEF4FE757E4E7
:105010000E94711618164CF56B857C858D859E85D2
:1050200020E030E040E251E40E949B14DC01CB011F
:10503000BC01CD010E944900DC01CB019E838D8320
:105040000FC088EC90E09C838B838B819C810197BF
:10505000F1F79C838B838D819E8101979E838D8345
:105060008D819E81009769F714C06F81788589854D
:105070009A850E944900DC01CB019E838D838D813E
:105080009E819A83898389819A810197F1F79A8316
:105090008983E5960FB6F894DEBF0FBECDBFCF91E2
:1050A000DF910895DF93CF93CDB7DEB769970FB641
:1050B000F894DEBF0FBECDBF198E1092B00180E014
:1050C00090E0A0E0B0E08093AC019093AD01A0939C
:1050D000AE01B093AF011092B30180E090E0A0E880
:1050E000BFE38D8B9E8BAF8BB88F1C8A0E94623082
:1050F000898F898D8F3FD1F3898D803308F4A9C0C2
:10510000898D8A3308F0A5C08091B00185300CF0FC
:10511000A0C08091B001882321F4898D803309F4E7
:10512000C4C0898D0E949A228091B0018F5F8093C4
:10513000B0018091B301882309F44CC0898D882F78
:1051400090E0C097AA2797FDA095BA2FBC01CD018A
:105150000E940117DC01CB01888B998BAA8BBB8B3A
:105160001F8613C0688979898A899B8920E030E08D
:1051700040E251E40E949515DC01CB01888B998BAC
:10518000AA8BBB8B8F858F5F8F879091B3018F85A3
:10519000891740F38091AC019091AD01A091AE01CF
:1051A000B091AF01BC01CD01288939894A895B8959
:1051B0000E946E14DC01CB018093AC019093AD0191
:1051C000A093AE01B093AF018091B3018F5F809344
:1051D000B3016BC08091AC019091AD01A091AE0183
:1051E000B091AF01BC01CD0120E030E040E251E4DC
:1051F0000E949B14DC01CB018093AC019093AD0124
:10520000A093AE01B093AF01898D882F90E0C09735
:10521000AA2797FDA095BA2FBC01CD010E940117C6
:10522000DC01CB012091AC013091AD014091AE0188
:105230005091AF01BC01CD010E946E14DC01CB0185
:105240008093AC019093AD01A093AE01B093AF01F8
:105250002CC0898D8D3291F48091B001882371F436
:10526000898D0E949A2280E090E0A0E8BFEB8D8BB0
:105270009E8BAF8BB88F81E08C8B17C08091B30170
:10528000882379F4898D8E3261F4898D0E949A2267
:1052900081E08093B3018091B00182508093B0018E
:1052A00004C0898D8D3309F473C080E090E0A8ECD0
:1052B000B3E48B879C87AD87BE876B857C858D85A6
:1052C0009E8520E030E04AEF54E40E949B14DC010C
:1052D000CB018F839887A987BA876F817885898565
:1052E0009A8520E030E040E85FE30E94D1168823F1
:1052F0002CF481E090E09E838D833FC06F817885A0
:1053000089859A8520E03FEF4FE757E40E947116A8
:1053100018164CF56B857C858D859E8520E030E0E8
:1053200040E251E40E949B14DC01CB01BC01CD01A1
:105330000E944900DC01CB019E838D830FC088EC65
:1053400090E09C838B838B819C810197F1F79C83F8
:105350008B838D819E8101979E838D838D819E811C
:10536000009769F7C3CE6F81788589859A850E94F9
:105370004900DC01CB019E838D838D819E819A83C0
:10538000898389819A810197F1F79A838983AECEC7
:105390008091AC019091AD01A091AE01B091AF01AF
:1053A000BC01CD012D893E894F89588D0E949B14E7
:1053B000DC01CB018093AC019093AD01A093AE01D1
:1053C000B093AF0169960FB6F894DEBF0FBECDBFA4
:1053D000CF91DF910895DF93CF9300D0CDB7DEB7A3
:1053E0008091B201282F30E03A83298389819A8104
:1053F0008B329105B9F129813A812C3231053CF487
:1054000089819A818A32910509F44BC0AEC0298105
:105410003A812D32310539F089819A818F32910597
:1054200009F45EC0A2C08091A8019091A901A09149
:10543000AA01B091AB012091AC013091AD01409136
:10544000AE015091AF01BC01CD010E943D14DC01C1
:10545000CB018093B4019093B501A093B601B093B2
:10546000B70183C08091A8019091A901A091AA01E0
:10547000B091AB012091AC013091AD014091AE01F2
:105480005091AF01BC01CD010E946E14DC01CB0133
:105490008093B4019093B501A093B601B093B70186
:1054A00064C08091A8019091A901A091AA01B09136
:1054B000AB012091AC013091AD014091AE01509112
:1054C000AF01BC01CD010E949B14DC01CB01809394
:1054D000B4019093B501A093B601B093B70145C054
:1054E0008091AC019091AD01A091AE01B091AF015E
:1054F000BC01CD0120E030E040E050E00E944116C8
:105500008823A9F482E061E00E94D02480E690E044
:105510000E942C2480E090E0A0E0B0E08093B401F1
:105520009093B501A093B601B093B7011EC08091CE
:10553000A8019091A901A091AA01B091AB0120917D
:10554000AC013091AD014091AE015091AF01BC0171
:10555000CD010E949515DC01CB018093B40190939D
:10556000B501A093B601B093B7010F900F90CF9102
:10557000DF910895AF92BF92CF92DF92EF92FF92A8
:105580000F931F93DF93CF93CDB7DEB76B970FB613
:10559000F894DEBF0FBECDBF8A8F6B8F198E8091BE
:1055A000B4019091B501A091B601B091B7018D8B76
:1055B0009E8BAF8BB88F6D897E898F89988D20E007
:1055C00030E040E050E00E94D116882384F481E06E
:1055D000898F8D899E89AF89B88DB0588D8B9E8BB0
:1055E000AF8BB88F8091B1018F5F8093B101109222
:1055F000B1018B8D8C8B6D897E898F89988D0E94EE
:105600007500A22EB32EC42ED52EE62EF72E082F0F
:10561000192FAC86BD86CE86DF86E88AF98A0A8B8A
:105620001B8B2C853D854E855F85688979898A89A4
:105630009B890E9491019B01AC016D897E898F89B4
:10564000988D0E943D14DC01CB01BC01CD0120E00E
:1056500030E048EC52E40E949B14DC01CB01BC0119
:10566000CD010E947500A22EB32EC42ED52EE62E9B
:10567000F72E082F192FAC82BD82CE82DF82E886FA
:10568000F9860A871B871B828C859D85892B9E85C1
:10569000892B9F85892B9889892B9989892B9A89B0
:1056A000892B9B89892B882311F58C819D81892BDE
:1056B0009E81892B9F81892B9885892B9985892BA0
:1056C0009A85892B9B85892B882389F49B8D8B8DCB
:1056D00081508B8F8A8D692F0E94D02480E30E9495
:1056E0009A228091B1018F5F8093B1010AC28B85AC
:1056F000181694F18B85882309F011C18A858823B7
:1057000059F58A85882309F00AC18985882321F5FE
:105710008985882309F003C188858823E9F4888571
:10572000882309F0FCC08F818823B1F48F818823FE
:1057300009F0F5C08E81882379F48E81882309F0E1
:10574000EEC08D81882341F48D81882309F0E7C064
:105750008C81882309F4E3C0AC80BD80CE80DF80DB
:10576000E884F9840A851B852A2D3B2D4C2D5D2D5F
:105770006E2D7F2D802F912F0F2EFAE0AF2EF02D62
:10578000BB24CC24DD24EE24FF2400E010E00E94A2
:10579000B40AA22EB32EC42ED52EE62EF72E082F35
:1057A000192F2A2D3B2D4C2D5D2D6E2D7F2D802FF9
:1057B000912F29836FC08B818F5F8B838091B10183
:1057C0008F5F8093B1019B8D8B8D81508B8F8A8DE4
:1057D000692F0E94D0248981805D0E949A22AC802A
:1057E000BD80CE80DF80E884F9840A851B852A2D60
:1057F0003B2D4C2D5D2D6E2D7F2D802F912F0F2E4B
:10580000FAE0AF2EF02DBB24CC24DD24EE24FF24BF
:1058100000E010E00E948C02A22EB32EC42ED52EE2
:10582000E62EF72E082F192FAC82BD82CE82DF82A2
:10583000E886F9860A871B87AC80BD80CE80DF8032
:10584000E884F9840A851B852A2D3B2D4C2D5D2D7E
:105850006E2D7F2D802F912F0F2EFAE0AF2EF02D81
:10586000BB24CC24DD24EE24FF2400E010E00E94C1
:10587000B40AA22EB32EC42ED52EE62EF72E082F54
:10588000192F2A2D3B2D4C2D5D2D6E2D7F2D802F18
:10589000912F29838B8518160CF48DCF8B85882347
:1058A00071F58A85882309F086CF8A85882339F5A2
:1058B0008985882309F07FCF8985882301F588852C
:1058C000882309F078CF88858823C9F48F818823BD
:1058D00009F071CF8F81882391F48E81882309F09C
:1058E0006ACF8E81882359F48D81882309F063CF94
:1058F0008D81882321F48C81882309F05CCF9B8DD6
:105900008B8D81508B8F8A8D692F0E94D0248EE2DF
:105910000E949A228091B1018F5F8093B101AC8483
:10592000BD84CE84DF84E888F9880A891B892A2D02
:105930003B2D4C2D5D2D6E2D7F2D802F912F0F2E09
:10594000FAE0AF2EF02DBB24CC24DD24EE24FF247E
:1059500000E010E00E94B40AA22EB32EC42ED52E71
:10596000E62EF72E082F192F2A2D3B2D4C2D5D2DBD
:105970006E2D7F2D802F912F2A838C859D85892BDD
:105980009E85892B9F85892B9889892B9989892BBD
:105990009A89892B9B89892B882309F07DC09B8D4F
:1059A0008B8D81508B8F8A8D692F0E94D02480E34C
:1059B0000E949A228091B1018F5F8093B101A1C0B2
:1059C0008091B1018F5F8093B1019B8D8B8D815050
:1059D0008B8F8A8D692F0E94D0248A81805D0E94DE
:1059E0009A22AC84BD84CE84DF84E888F9880A8951
:1059F0001B892A2D3B2D4C2D5D2D6E2D7F2D802F4B
:105A0000912F0F2EFAE0AF2EF02DBB24CC24DD24F5
:105A1000EE24FF2400E010E00E948C02A22EB32EA0
:105A2000C42ED52EE62EF72E082F192FAC86BD8654
:105A3000CE86DF86E88AF98A0A8B1B8BAC84BD840C
:105A4000CE84DF84E888F9880A891B892A2D3B2DBA
:105A50004C2D5D2D6E2D7F2D802F912F0F2EFAE076
:105A6000AF2EF02DBB24CC24DD24EE24FF2400E057
:105A700010E00E94B40AA22EB32EC42ED52EE62E1C
:105A8000F72E082F192F2A2D3B2D4C2D5D2D6E2D15
:105A90007F2D802F912F2A838B8918160CF490CF9D
:105AA0008B89882371F58A89882309F089CF8A89AF
:105AB000882339F58989882309F082CF8989882349
:105AC00001F58889882309F07BCF88898823C9F468
:105AD0008F85882309F074CF8F85882391F48E8574
